{
  "_format": "hh-sol-artifact-1",
  "contractName": "MyEpicNFT",
  "sourceName": "contracts/MyEpicNFT.sol",
  "abi": [
    {
      "inputs": [],
      "stateMutability": "nonpayable",
      "type": "constructor"
    },
    {
      "anonymous": false,
      "inputs": [
        {
          "indexed": true,
          "internalType": "address",
          "name": "owner",
          "type": "address"
        },
        {
          "indexed": true,
          "internalType": "address",
          "name": "approved",
          "type": "address"
        },
        {
          "indexed": true,
          "internalType": "uint256",
          "name": "tokenId",
          "type": "uint256"
        }
      ],
      "name": "Approval",
      "type": "event"
    },
    {
      "anonymous": false,
      "inputs": [
        {
          "indexed": true,
          "internalType": "address",
          "name": "owner",
          "type": "address"
        },
        {
          "indexed": true,
          "internalType": "address",
          "name": "operator",
          "type": "address"
        },
        {
          "indexed": false,
          "internalType": "bool",
          "name": "approved",
          "type": "bool"
        }
      ],
      "name": "ApprovalForAll",
      "type": "event"
    },
    {
      "anonymous": false,
      "inputs": [
        {
          "indexed": false,
          "internalType": "address",
          "name": "sender",
          "type": "address"
        },
        {
          "indexed": false,
          "internalType": "uint256",
          "name": "tokenId",
          "type": "uint256"
        }
      ],
      "name": "NewEpicNFTMinted",
      "type": "event"
    },
    {
      "anonymous": false,
      "inputs": [
        {
          "indexed": true,
          "internalType": "address",
          "name": "from",
          "type": "address"
        },
        {
          "indexed": true,
          "internalType": "address",
          "name": "to",
          "type": "address"
        },
        {
          "indexed": true,
          "internalType": "uint256",
          "name": "tokenId",
          "type": "uint256"
        }
      ],
      "name": "Transfer",
      "type": "event"
    },
    {
      "inputs": [],
      "name": "TotalMintCount",
      "outputs": [
        {
          "internalType": "uint256",
          "name": "",
          "type": "uint256"
        }
      ],
      "stateMutability": "view",
      "type": "function"
    },
    {
      "inputs": [
        {
          "internalType": "address",
          "name": "to",
          "type": "address"
        },
        {
          "internalType": "uint256",
          "name": "tokenId",
          "type": "uint256"
        }
      ],
      "name": "approve",
      "outputs": [],
      "stateMutability": "nonpayable",
      "type": "function"
    },
    {
      "inputs": [
        {
          "internalType": "address",
          "name": "owner",
          "type": "address"
        }
      ],
      "name": "balanceOf",
      "outputs": [
        {
          "internalType": "uint256",
          "name": "",
          "type": "uint256"
        }
      ],
      "stateMutability": "view",
      "type": "function"
    },
    {
      "inputs": [
        {
          "internalType": "uint256",
          "name": "tokenId",
          "type": "uint256"
        }
      ],
      "name": "getApproved",
      "outputs": [
        {
          "internalType": "address",
          "name": "",
          "type": "address"
        }
      ],
      "stateMutability": "view",
      "type": "function"
    },
    {
      "inputs": [
        {
          "internalType": "address",
          "name": "owner",
          "type": "address"
        },
        {
          "internalType": "address",
          "name": "operator",
          "type": "address"
        }
      ],
      "name": "isApprovedForAll",
      "outputs": [
        {
          "internalType": "bool",
          "name": "",
          "type": "bool"
        }
      ],
      "stateMutability": "view",
      "type": "function"
    },
    {
      "inputs": [],
      "name": "makeAnEpicNFT",
      "outputs": [],
      "stateMutability": "nonpayable",
      "type": "function"
    },
    {
      "inputs": [],
      "name": "maxMintAmount",
      "outputs": [
        {
          "internalType": "uint256",
          "name": "",
          "type": "uint256"
        }
      ],
      "stateMutability": "view",
      "type": "function"
    },
    {
      "inputs": [],
      "name": "maxSupply",
      "outputs": [
        {
          "internalType": "uint256",
          "name": "",
          "type": "uint256"
        }
      ],
      "stateMutability": "view",
      "type": "function"
    },
    {
      "inputs": [],
      "name": "name",
      "outputs": [
        {
          "internalType": "string",
          "name": "",
          "type": "string"
        }
      ],
      "stateMutability": "view",
      "type": "function"
    },
    {
      "inputs": [
        {
          "internalType": "uint256",
          "name": "tokenId",
          "type": "uint256"
        }
      ],
      "name": "ownerOf",
      "outputs": [
        {
          "internalType": "address",
          "name": "",
          "type": "address"
        }
      ],
      "stateMutability": "view",
      "type": "function"
    },
    {
      "inputs": [
        {
          "internalType": "uint256",
          "name": "tokenId",
          "type": "uint256"
        }
      ],
      "name": "pickRandomFirstWord",
      "outputs": [
        {
          "internalType": "string",
          "name": "",
          "type": "string"
        }
      ],
      "stateMutability": "view",
      "type": "function"
    },
    {
      "inputs": [
        {
          "internalType": "uint256",
          "name": "tokenId",
          "type": "uint256"
        }
      ],
      "name": "pickRandomSecondWord",
      "outputs": [
        {
          "internalType": "string",
          "name": "",
          "type": "string"
        }
      ],
      "stateMutability": "view",
      "type": "function"
    },
    {
      "inputs": [
        {
          "internalType": "uint256",
          "name": "tokenId",
          "type": "uint256"
        }
      ],
      "name": "pickRandomThirdWord",
      "outputs": [
        {
          "internalType": "string",
          "name": "",
          "type": "string"
        }
      ],
      "stateMutability": "view",
      "type": "function"
    },
    {
      "inputs": [
        {
          "internalType": "address",
          "name": "from",
          "type": "address"
        },
        {
          "internalType": "address",
          "name": "to",
          "type": "address"
        },
        {
          "internalType": "uint256",
          "name": "tokenId",
          "type": "uint256"
        }
      ],
      "name": "safeTransferFrom",
      "outputs": [],
      "stateMutability": "nonpayable",
      "type": "function"
    },
    {
      "inputs": [
        {
          "internalType": "address",
          "name": "from",
          "type": "address"
        },
        {
          "internalType": "address",
          "name": "to",
          "type": "address"
        },
        {
          "internalType": "uint256",
          "name": "tokenId",
          "type": "uint256"
        },
        {
          "internalType": "bytes",
          "name": "_data",
          "type": "bytes"
        }
      ],
      "name": "safeTransferFrom",
      "outputs": [],
      "stateMutability": "nonpayable",
      "type": "function"
    },
    {
      "inputs": [
        {
          "internalType": "address",
          "name": "operator",
          "type": "address"
        },
        {
          "internalType": "bool",
          "name": "approved",
          "type": "bool"
        }
      ],
      "name": "setApprovalForAll",
      "outputs": [],
      "stateMutability": "nonpayable",
      "type": "function"
    },
    {
      "inputs": [
        {
          "internalType": "bytes4",
          "name": "interfaceId",
          "type": "bytes4"
        }
      ],
      "name": "supportsInterface",
      "outputs": [
        {
          "internalType": "bool",
          "name": "",
          "type": "bool"
        }
      ],
      "stateMutability": "view",
      "type": "function"
    },
    {
      "inputs": [],
      "name": "symbol",
      "outputs": [
        {
          "internalType": "string",
          "name": "",
          "type": "string"
        }
      ],
      "stateMutability": "view",
      "type": "function"
    },
    {
      "inputs": [
        {
          "internalType": "uint256",
          "name": "tokenId",
          "type": "uint256"
        }
      ],
      "name": "tokenURI",
      "outputs": [
        {
          "internalType": "string",
          "name": "",
          "type": "string"
        }
      ],
      "stateMutability": "view",
      "type": "function"
    },
    {
      "inputs": [
        {
          "internalType": "address",
          "name": "from",
          "type": "address"
        },
        {
          "internalType": "address",
          "name": "to",
          "type": "address"
        },
        {
          "internalType": "uint256",
          "name": "tokenId",
          "type": "uint256"
        }
      ],
      "name": "transferFrom",
      "outputs": [],
      "stateMutability": "nonpayable",
      "type": "function"
    }
  ],
  "bytecode": "0x6080604052600a600855600260095560405180610160016040528061012f8152602001620045b061012f9139600a90805190602001906200004292919062000688565b506040518060c001604052806040518060400160405280600581526020017f5361756e6100000000000000000000000000000000000000000000000000000081525081526020016040518060400160405280600381526020017f486f74000000000000000000000000000000000000000000000000000000000081525081526020016040518060400160405280600481526020017f436f6c640000000000000000000000000000000000000000000000000000000081525081526020016040518060400160405280600481526020017f426174680000000000000000000000000000000000000000000000000000000081525081526020016040518060400160405280600581526020017f576174657200000000000000000000000000000000000000000000000000000081525081526020016040518060400160405280600681526020017f53686f7765720000000000000000000000000000000000000000000000000000815250815250600b906006620001c092919062000719565b506040518060c001604052806040518060400160405280600381526020017f53756e000000000000000000000000000000000000000000000000000000000081525081526020016040518060400160405280600481526020017f57696e640000000000000000000000000000000000000000000000000000000081525081526020016040518060400160405280600581526020017f506c616e7400000000000000000000000000000000000000000000000000000081525081526020016040518060400160405280600481526020017f536f696c0000000000000000000000000000000000000000000000000000000081525081526020016040518060400160405280600481526020017f4c6561660000000000000000000000000000000000000000000000000000000081525081526020016040518060400160405280600481526020017f5472656500000000000000000000000000000000000000000000000000000000815250815250600c9060066200033e92919062000719565b506040518060c001604052806040518060400160405280600581526020017f506f77657200000000000000000000000000000000000000000000000000000081525081526020016040518060400160405280600681526020017f4d7573636c65000000000000000000000000000000000000000000000000000081525081526020016040518060400160405280600481526020017f507573680000000000000000000000000000000000000000000000000000000081525081526020016040518060400160405280600481526020017f50756c6c0000000000000000000000000000000000000000000000000000000081525081526020016040518060400160405280600481526020017f426f64790000000000000000000000000000000000000000000000000000000081525081526020016040518060400160405280600381526020017f47796d0000000000000000000000000000000000000000000000000000000000815250815250600d906006620004bc92919062000719565b50348015620004ca57600080fd5b506040518060400160405280600981526020017f5371756172654e465400000000000000000000000000000000000000000000008152506040518060400160405280600681526020017f535155415245000000000000000000000000000000000000000000000000000081525081600090805190602001906200054f92919062000688565b5080600190805190602001906200056892919062000688565b505050620005b66040518060400160405280601881526020017f54686973206973206d79204e465420636f6e74726163742e0000000000000000815250620005bc60201b620012621760201c565b6200093a565b6200065c81604051602401620005d391906200084e565b6040516020818303038152906040527f41304fac000000000000000000000000000000000000000000000000000000007bffffffffffffffffffffffffffffffffffffffffffffffffffffffff19166020820180517bffffffffffffffffffffffffffffffffffffffffffffffffffffffff83818316178352505050506200065f60201b60201c565b50565b60008151905060006a636f6e736f6c652e6c6f679050602083016000808483855afa5050505050565b8280546200069690620008c4565b90600052602060002090601f016020900481019282620006ba576000855562000706565b82601f10620006d557805160ff191683800117855562000706565b8280016001018555821562000706579182015b8281111562000705578251825591602001919060010190620006e8565b5b50905062000715919062000780565b5090565b8280548282559060005260206000209081019282156200076d579160200282015b828111156200076c5782518290805190602001906200075b92919062000688565b50916020019190600101906200073a565b5b5090506200077c91906200079f565b5090565b5b808211156200079b57600081600090555060010162000781565b5090565b5b80821115620007c35760008181620007b99190620007c7565b50600101620007a0565b5090565b508054620007d590620008c4565b6000825580601f10620007e957506200080a565b601f01602090049060005260206000209081019062000809919062000780565b5b50565b60006200081a8262000872565b6200082681856200087d565b9350620008388185602086016200088e565b620008438162000929565b840191505092915050565b600060208201905081810360008301526200086a81846200080d565b905092915050565b600081519050919050565b600082825260208201905092915050565b60005b83811015620008ae57808201518184015260208101905062000891565b83811115620008be576000848401525b50505050565b60006002820490506001821680620008dd57607f821691505b60208210811415620008f457620008f3620008fa565b5b50919050565b7f4e487b7100000000000000000000000000000000000000000000000000000000600052602260045260246000fd5b6000601f19601f8301169050919050565b613c66806200094a6000396000f3fe608060405234801561001057600080fd5b506004361061012c5760003560e01c806370a08231116100ad578063c575757a11610071578063c575757a14610355578063c87b56dd14610385578063d5abeb01146103b5578063de9d132f146103d3578063e985e9c5146103dd5761012c565b806370a082311461029f57806395d89b41146102cf578063a22cb465146102ed578063b187301f14610309578063b88d4fde146103395761012c565b8063239c70ae116100f4578063239c70ae146101e957806323b872dd146102075780632de38d681461022357806342842e0e146102535780636352211e1461026f5761012c565b806301ffc9a7146101315780630375d3f01461016157806306fdde031461017f578063081812fc1461019d578063095ea7b3146101cd575b600080fd5b61014b6004803603810190610146919061272a565b61040d565b6040516101589190612e4e565b60405180910390f35b6101696104ef565b60405161017691906130f9565b60405180910390f35b610187610505565b6040516101949190612e69565b60405180910390f35b6101b760048036038101906101b2919061277c565b610597565b6040516101c49190612dbe565b60405180910390f35b6101e760048036038101906101e291906126ee565b61061c565b005b6101f1610734565b6040516101fe91906130f9565b60405180910390f35b610221600480360381019061021c91906125e8565b61073a565b005b61023d6004803603810190610238919061277c565b61079a565b60405161024a9190612e69565b60405180910390f35b61026d600480360381019061026891906125e8565b610936565b005b6102896004803603810190610284919061277c565b610956565b6040516102969190612dbe565b60405180910390f35b6102b960048036038101906102b49190612583565b610a08565b6040516102c691906130f9565b60405180910390f35b6102d7610ac0565b6040516102e49190612e69565b60405180910390f35b610307600480360381019061030291906126b2565b610b52565b005b610323600480360381019061031e919061277c565b610b68565b6040516103309190612e69565b60405180910390f35b610353600480360381019061034e9190612637565b610c86565b005b61036f600480360381019061036a919061277c565b610ce8565b60405161037c9190612e69565b60405180910390f35b61039f600480360381019061039a919061277c565b610e06565b6040516103ac9190612e69565b60405180910390f35b6103bd610f58565b6040516103ca91906130f9565b60405180910390f35b6103db610f5e565b005b6103f760048036038101906103f291906125ac565b6111ce565b6040516104049190612e4e565b60405180910390f35b60007f80ac58cd000000000000000000000000000000000000000000000000000000007bffffffffffffffffffffffffffffffffffffffffffffffffffffffff1916827bffffffffffffffffffffffffffffffffffffffffffffffffffffffff191614806104d857507f5b5e139f000000000000000000000000000000000000000000000000000000007bffffffffffffffffffffffffffffffffffffffffffffffffffffffff1916827bffffffffffffffffffffffffffffffffffffffffffffffffffffffff1916145b806104e857506104e7826112fb565b5b9050919050565b6000806104fc6007611365565b90508091505090565b6060600080546105149061338d565b80601f01602080910402602001604051908101604052809291908181526020018280546105409061338d565b801561058d5780601f106105625761010080835404028352916020019161058d565b820191906000526020600020905b81548152906001019060200180831161057057829003601f168201915b5050505050905090565b60006105a282611373565b6105e1576040517f08c379a00000000000000000000000000000000000000000000000000000000081526004016105d890613079565b60405180910390fd5b6004600083815260200190815260200160002060009054906101000a900473ffffffffffffffffffffffffffffffffffffffff169050919050565b600061062782610956565b90508073ffffffffffffffffffffffffffffffffffffffff168373ffffffffffffffffffffffffffffffffffffffff161415610698576040517f08c379a000000000000000000000000000000000000000000000000000000000815260040161068f906130b9565b60405180910390fd5b8073ffffffffffffffffffffffffffffffffffffffff166106b76113df565b73ffffffffffffffffffffffffffffffffffffffff1614806106e657506106e5816106e06113df565b6111ce565b5b610725576040517f08c379a000000000000000000000000000000000000000000000000000000000815260040161071c90612fb9565b60405180910390fd5b61072f83836113e7565b505050565b60095481565b61074b6107456113df565b826114a0565b61078a576040517f08c379a0000000000000000000000000000000000000000000000000000000008152600401610781906130d9565b60405180910390fd5b61079583838361157e565b505050565b606060006107ce6107aa846117e5565b6040516020016107ba9190612d7a565b604051602081830303815290604052611992565b905061080f6040518060400160405280600d81526020017f72616e64202d20736565643a2000000000000000000000000000000000000000815250826119c5565b600b80549050816108209190613439565b90506108616040518060400160405280601381526020017f72616e64202d20666972737420776f72643a2000000000000000000000000000815250826119c5565b600b818154811061089b577f4e487b7100000000000000000000000000000000000000000000000000000000600052603260045260246000fd5b9060005260206000200180546108b09061338d565b80601f01602080910402602001604051908101604052809291908181526020018280546108dc9061338d565b80156109295780601f106108fe57610100808354040283529160200191610929565b820191906000526020600020905b81548152906001019060200180831161090c57829003601f168201915b5050505050915050919050565b61095183838360405180602001604052806000815250610c86565b505050565b6000806002600084815260200190815260200160002060009054906101000a900473ffffffffffffffffffffffffffffffffffffffff169050600073ffffffffffffffffffffffffffffffffffffffff168173ffffffffffffffffffffffffffffffffffffffff1614156109ff576040517f08c379a00000000000000000000000000000000000000000000000000000000081526004016109f690612ff9565b60405180910390fd5b80915050919050565b60008073ffffffffffffffffffffffffffffffffffffffff168273ffffffffffffffffffffffffffffffffffffffff161415610a79576040517f08c379a0000000000000000000000000000000000000000000000000000000008152600401610a7090612fd9565b60405180910390fd5b600360008373ffffffffffffffffffffffffffffffffffffffff1673ffffffffffffffffffffffffffffffffffffffff168152602001908152602001600020549050919050565b606060018054610acf9061338d565b80601f0160208091040260200160405190810160405280929190818152602001828054610afb9061338d565b8015610b485780601f10610b1d57610100808354040283529160200191610b48565b820191906000526020600020905b815481529060010190602001808311610b2b57829003601f168201915b5050505050905090565b610b64610b5d6113df565b8383611a61565b5050565b60606000610b9c610b78846117e5565b604051602001610b889190612d13565b604051602081830303815290604052611992565b9050600c8054905081610baf9190613439565b9050600c8181548110610beb577f4e487b7100000000000000000000000000000000000000000000000000000000600052603260045260246000fd5b906000526020600020018054610c009061338d565b80601f0160208091040260200160405190810160405280929190818152602001828054610c2c9061338d565b8015610c795780601f10610c4e57610100808354040283529160200191610c79565b820191906000526020600020905b815481529060010190602001808311610c5c57829003601f168201915b5050505050915050919050565b610c97610c916113df565b836114a0565b610cd6576040517f08c379a0000000000000000000000000000000000000000000000000000000008152600401610ccd906130d9565b60405180910390fd5b610ce284848484611bce565b50505050565b60606000610d1c610cf8846117e5565b604051602001610d089190612cf1565b604051602081830303815290604052611992565b9050600d8054905081610d2f9190613439565b9050600d8181548110610d6b577f4e487b7100000000000000000000000000000000000000000000000000000000600052603260045260246000fd5b906000526020600020018054610d809061338d565b80601f0160208091040260200160405190810160405280929190818152602001828054610dac9061338d565b8015610df95780601f10610dce57610100808354040283529160200191610df9565b820191906000526020600020905b815481529060010190602001808311610ddc57829003601f168201915b5050505050915050919050565b6060610e1182611373565b610e50576040517f08c379a0000000000000000000000000000000000000000000000000000000008152600401610e4790613059565b60405180910390fd5b6000600660008481526020019081526020016000208054610e709061338d565b80601f0160208091040260200160405190810160405280929190818152602001828054610e9c9061338d565b8015610ee95780601f10610ebe57610100808354040283529160200191610ee9565b820191906000526020600020905b815481529060010190602001808311610ecc57829003601f168201915b505050505090506000610efa611c2a565b9050600081511415610f10578192505050610f53565b600082511115610f45578082604051602001610f2d929190612c53565b60405160208183030381529060405292505050610f53565b610f4e84611c41565b925050505b919050565b60085481565b6000610f6a6007611365565b90506000610f778261079a565b90506000610f8483610b68565b90506000610f9184610ce8565b90506000838383604051602001610faa93929190612c77565b60405160208183030381529060405290506000600a858585604051602001610fd59493929190612ca8565b60405160208183030381529060405290506110246040518060400160405280601581526020017f0a2d2d2d2d2d205356472064617461202d2d2d2d2d0000000000000000000000815250611262565b61102d81611262565b61106b6040518060400160405280601581526020017f2d2d2d2d2d2d2d2d2d2d2d2d2d2d2d2d2d2d2d2d0a0000000000000000000000815250611262565b600061109f8361107a84611ce8565b60405160200161108b929190612d35565b604051602081830303815290604052611ce8565b90506000816040516020016110b49190612d9c565b60405160208183030381529060405290506111036040518060400160405280601581526020017f0a2d2d2d2d2d20546f6b656e20555249202d2d2d2d0000000000000000000000815250611262565b61110c81611262565b61114a6040518060400160405280601581526020017f2d2d2d2d2d2d2d2d2d2d2d2d2d2d2d2d2d2d2d2d0a0000000000000000000000815250611262565b6111543389611ea6565b61115e8882611ec4565b611181604051806060016040528060258152602001613bcc602591398933611f38565b61118b6007611fd7565b7febb98688741ffa4c7589bf325de30cf7becb63de567842e1ccdb6cb949fdc82c33896040516111bc929190612e25565b60405180910390a15050505050505050565b6000600560008473ffffffffffffffffffffffffffffffffffffffff1673ffffffffffffffffffffffffffffffffffffffff16815260200190815260200160002060008373ffffffffffffffffffffffffffffffffffffffff1673ffffffffffffffffffffffffffffffffffffffff16815260200190815260200160002060009054906101000a900460ff16905092915050565b6112f8816040516024016112769190612e69565b6040516020818303038152906040527f41304fac000000000000000000000000000000000000000000000000000000007bffffffffffffffffffffffffffffffffffffffffffffffffffffffff19166020820180517bffffffffffffffffffffffffffffffffffffffffffffffffffffffff8381831617835250505050611fed565b50565b60007f01ffc9a7000000000000000000000000000000000000000000000000000000007bffffffffffffffffffffffffffffffffffffffffffffffffffffffff1916827bffffffffffffffffffffffffffffffffffffffffffffffffffffffff1916149050919050565b600081600001549050919050565b60008073ffffffffffffffffffffffffffffffffffffffff166002600084815260200190815260200160002060009054906101000a900473ffffffffffffffffffffffffffffffffffffffff1673ffffffffffffffffffffffffffffffffffffffff1614159050919050565b600033905090565b816004600083815260200190815260200160002060006101000a81548173ffffffffffffffffffffffffffffffffffffffff021916908373ffffffffffffffffffffffffffffffffffffffff160217905550808273ffffffffffffffffffffffffffffffffffffffff1661145a83610956565b73ffffffffffffffffffffffffffffffffffffffff167f8c5be1e5ebec7d5bd14f71427d1e84f3dd0314c0f7b2291e5b200ac8c7c3b92560405160405180910390a45050565b60006114ab82611373565b6114ea576040517f08c379a00000000000000000000000000000000000000000000000000000000081526004016114e190612f99565b60405180910390fd5b60006114f583610956565b90508073ffffffffffffffffffffffffffffffffffffffff168473ffffffffffffffffffffffffffffffffffffffff16148061156457508373ffffffffffffffffffffffffffffffffffffffff1661154c84610597565b73ffffffffffffffffffffffffffffffffffffffff16145b80611575575061157481856111ce565b5b91505092915050565b8273ffffffffffffffffffffffffffffffffffffffff1661159e82610956565b73ffffffffffffffffffffffffffffffffffffffff16146115f4576040517f08c379a00000000000000000000000000000000000000000000000000000000081526004016115eb90612f19565b60405180910390fd5b600073ffffffffffffffffffffffffffffffffffffffff168273ffffffffffffffffffffffffffffffffffffffff161415611664576040517f08c379a000000000000000000000000000000000000000000000000000000000815260040161165b90612f59565b60405180910390fd5b61166f838383612016565b61167a6000826113e7565b6001600360008573ffffffffffffffffffffffffffffffffffffffff1673ffffffffffffffffffffffffffffffffffffffff16815260200190815260200160002060008282546116ca91906132a3565b925050819055506001600360008473ffffffffffffffffffffffffffffffffffffffff1673ffffffffffffffffffffffffffffffffffffffff168152602001908152602001600020600082825461172191906131c2565b92505081905550816002600083815260200190815260200160002060006101000a81548173ffffffffffffffffffffffffffffffffffffffff021916908373ffffffffffffffffffffffffffffffffffffffff160217905550808273ffffffffffffffffffffffffffffffffffffffff168473ffffffffffffffffffffffffffffffffffffffff167fddf252ad1be2c89b69c2b068fc378daa952ba7f163c4a11628f55a4df523b3ef60405160405180910390a46117e083838361201b565b505050565b6060600082141561182d576040518060400160405280600181526020017f3000000000000000000000000000000000000000000000000000000000000000815250905061198d565b600082905060005b6000821461185f578080611848906133f0565b915050600a826118589190613218565b9150611835565b60008167ffffffffffffffff8111156118a1577f4e487b7100000000000000000000000000000000000000000000000000000000600052604160045260246000fd5b6040519080825280601f01601f1916602001820160405280156118d35781602001600182028036833780820191505090505b5090505b60008514611986576001826118ec91906132a3565b9150600a856118fb9190613439565b603061190791906131c2565b60f81b818381518110611943577f4e487b7100000000000000000000000000000000000000000000000000000000600052603260045260246000fd5b60200101907effffffffffffffffffffffffffffffffffffffffffffffffffffffffffffff1916908160001a905350600a8561197f9190613218565b94506118d7565b8093505050505b919050565b6000816040516020016119a59190612c3c565b6040516020818303038152906040528051906020012060001c9050919050565b611a5d82826040516024016119db929190612e8b565b6040516020818303038152906040527f9710a9d0000000000000000000000000000000000000000000000000000000007bffffffffffffffffffffffffffffffffffffffffffffffffffffffff19166020820180517bffffffffffffffffffffffffffffffffffffffffffffffffffffffff8381831617835250505050611fed565b5050565b8173ffffffffffffffffffffffffffffffffffffffff168373ffffffffffffffffffffffffffffffffffffffff161415611ad0576040517f08c379a0000000000000000000000000000000000000000000000000000000008152600401611ac790612f79565b60405180910390fd5b80600560008573ffffffffffffffffffffffffffffffffffffffff1673ffffffffffffffffffffffffffffffffffffffff16815260200190815260200160002060008473ffffffffffffffffffffffffffffffffffffffff1673ffffffffffffffffffffffffffffffffffffffff16815260200190815260200160002060006101000a81548160ff0219169083151502179055508173ffffffffffffffffffffffffffffffffffffffff168373ffffffffffffffffffffffffffffffffffffffff167f17307eab39ab6107e8899845ad3d59bd9653f200f220920489ca2b5937696c3183604051611bc19190612e4e565b60405180910390a3505050565b611bd984848461157e565b611be584848484612020565b611c24576040517f08c379a0000000000000000000000000000000000000000000000000000000008152600401611c1b90612ef9565b60405180910390fd5b50505050565b606060405180602001604052806000815250905090565b6060611c4c82611373565b611c8b576040517f08c379a0000000000000000000000000000000000000000000000000000000008152600401611c8290613099565b60405180910390fd5b6000611c95611c2a565b90506000815111611cb55760405180602001604052806000815250611ce0565b80611cbf846117e5565b604051602001611cd0929190612c53565b6040516020818303038152906040525b915050919050565b60606000825190506000811415611d115760405180602001604052806000815250915050611ea1565b60006003600283611d2291906131c2565b611d2c9190613218565b6004611d389190613249565b90506000602082611d4991906131c2565b67ffffffffffffffff811115611d88577f4e487b7100000000000000000000000000000000000000000000000000000000600052604160045260246000fd5b6040519080825280601f01601f191660200182016040528015611dba5781602001600182028036833780820191505090505b5090506000604051806060016040528060408152602001613bf1604091399050600181016020830160005b86811015611e5e5760038101905062ffffff818a015116603f8160121c168401518060081b905060ff603f83600c1c1686015116810190508060081b905060ff603f8360061c1686015116810190508060081b905060ff603f831686015116810190508060e01b90508084526004840193505050611de5565b506003860660018114611e785760028114611e8857611e93565b613d3d60f01b6002830352611e93565b603d60f81b60018303525b508484525050819450505050505b919050565b611ec08282604051806020016040528060008152506121b7565b5050565b611ecd82611373565b611f0c576040517f08c379a0000000000000000000000000000000000000000000000000000000008152600401611f0390613019565b60405180910390fd5b80600660008481526020019081526020016000209080519060200190611f3392919061240f565b505050565b611fd2838383604051602401611f5093929190612ebb565b6040516020818303038152906040527fe3849f79000000000000000000000000000000000000000000000000000000007bffffffffffffffffffffffffffffffffffffffffffffffffffffffff19166020820180517bffffffffffffffffffffffffffffffffffffffffffffffffffffffff8381831617835250505050611fed565b505050565b6001816000016000828254019250508190555050565b60008151905060006a636f6e736f6c652e6c6f679050602083016000808483855afa5050505050565b505050565b505050565b60006120418473ffffffffffffffffffffffffffffffffffffffff16612212565b156121aa578373ffffffffffffffffffffffffffffffffffffffff1663150b7a0261206a6113df565b8786866040518563ffffffff1660e01b815260040161208c9493929190612dd9565b602060405180830381600087803b1580156120a657600080fd5b505af19250505080156120d757506040513d601f19601f820116820180604052508101906120d49190612753565b60015b61215a573d8060008114612107576040519150601f19603f3d011682016040523d82523d6000602084013e61210c565b606091505b50600081511415612152576040517f08c379a000000000000000000000000000000000000000000000000000000000815260040161214990612ef9565b60405180910390fd5b805181602001fd5b63150b7a0260e01b7bffffffffffffffffffffffffffffffffffffffffffffffffffffffff1916817bffffffffffffffffffffffffffffffffffffffffffffffffffffffff1916149150506121af565b600190505b949350505050565b6121c18383612235565b6121ce6000848484612020565b61220d576040517f08c379a000000000000000000000000000000000000000000000000000000000815260040161220490612ef9565b60405180910390fd5b505050565b6000808273ffffffffffffffffffffffffffffffffffffffff163b119050919050565b600073ffffffffffffffffffffffffffffffffffffffff168273ffffffffffffffffffffffffffffffffffffffff1614156122a5576040517f08c379a000000000000000000000000000000000000000000000000000000000815260040161229c90613039565b60405180910390fd5b6122ae81611373565b156122ee576040517f08c379a00000000000000000000000000000000000000000000000000000000081526004016122e590612f39565b60405180910390fd5b6122fa60008383612016565b6001600360008473ffffffffffffffffffffffffffffffffffffffff1673ffffffffffffffffffffffffffffffffffffffff168152602001908152602001600020600082825461234a91906131c2565b92505081905550816002600083815260200190815260200160002060006101000a81548173ffffffffffffffffffffffffffffffffffffffff021916908373ffffffffffffffffffffffffffffffffffffffff160217905550808273ffffffffffffffffffffffffffffffffffffffff16600073ffffffffffffffffffffffffffffffffffffffff167fddf252ad1be2c89b69c2b068fc378daa952ba7f163c4a11628f55a4df523b3ef60405160405180910390a461240b6000838361201b565b5050565b82805461241b9061338d565b90600052602060002090601f01602090048101928261243d5760008555612484565b82601f1061245657805160ff1916838001178555612484565b82800160010185558215612484579182015b82811115612483578251825591602001919060010190612468565b5b5090506124919190612495565b5090565b5b808211156124ae576000816000905550600101612496565b5090565b60006124c56124c084613139565b613114565b9050828152602081018484840111156124dd57600080fd5b6124e884828561334b565b509392505050565b6000813590506124ff81613b6f565b92915050565b60008135905061251481613b86565b92915050565b60008135905061252981613b9d565b92915050565b60008151905061253e81613b9d565b92915050565b600082601f83011261255557600080fd5b81356125658482602086016124b2565b91505092915050565b60008135905061257d81613bb4565b92915050565b60006020828403121561259557600080fd5b60006125a3848285016124f0565b91505092915050565b600080604083850312156125bf57600080fd5b60006125cd858286016124f0565b92505060206125de858286016124f0565b9150509250929050565b6000806000606084860312156125fd57600080fd5b600061260b868287016124f0565b935050602061261c868287016124f0565b925050604061262d8682870161256e565b9150509250925092565b6000806000806080858703121561264d57600080fd5b600061265b878288016124f0565b945050602061266c878288016124f0565b935050604061267d8782880161256e565b925050606085013567ffffffffffffffff81111561269a57600080fd5b6126a687828801612544565b91505092959194509250565b600080604083850312156126c557600080fd5b60006126d3858286016124f0565b92505060206126e485828601612505565b9150509250929050565b6000806040838503121561270157600080fd5b600061270f858286016124f0565b92505060206127208582860161256e565b9150509250929050565b60006020828403121561273c57600080fd5b600061274a8482850161251a565b91505092915050565b60006020828403121561276557600080fd5b60006127738482850161252f565b91505092915050565b60006020828403121561278e57600080fd5b600061279c8482850161256e565b91505092915050565b6127ae816132d7565b82525050565b6127bd816132e9565b82525050565b60006127ce8261317f565b6127d88185613195565b93506127e881856020860161335a565b6127f181613526565b840191505092915050565b60006128078261318a565b61281181856131a6565b935061282181856020860161335a565b61282a81613526565b840191505092915050565b60006128408261318a565b61284a81856131b7565b935061285a81856020860161335a565b80840191505092915050565b600081546128738161338d565b61287d81866131b7565b9450600182166000811461289857600181146128a9576128dc565b60ff198316865281860193506128dc565b6128b28561316a565b60005b838110156128d4578154818901526001820191506020810190506128b5565b838801955050505b50505092915050565b60006128f26032836131a6565b91506128fd82613537565b604082019050919050565b60006129156025836131a6565b915061292082613586565b604082019050919050565b6000612938601c836131a6565b9150612943826135d5565b602082019050919050565b600061295b600a836131b7565b9150612966826135fe565b600a82019050919050565b600061297e6024836131a6565b915061298982613627565b604082019050919050565b60006129a16019836131a6565b91506129ac82613676565b602082019050919050565b60006129c46063836131b7565b91506129cf8261369f565b606382019050919050565b60006129e7600b836131b7565b91506129f28261373a565b600b82019050919050565b6000612a0a602c836131a6565b9150612a1582613763565b604082019050919050565b6000612a2d600d836131b7565b9150612a38826137b2565b600d82019050919050565b6000612a506038836131a6565b9150612a5b826137db565b604082019050919050565b6000612a73602a836131a6565b9150612a7e8261382a565b604082019050919050565b6000612a966029836131a6565b9150612aa182613879565b604082019050919050565b6000612ab9602e836131a6565b9150612ac4826138c8565b604082019050919050565b6000612adc6002836131b7565b9150612ae782613917565b600282019050919050565b6000612aff6020836131a6565b9150612b0a82613940565b602082019050919050565b6000612b226031836131a6565b9150612b2d82613969565b604082019050919050565b6000612b45602c836131a6565b9150612b50826139b8565b604082019050919050565b6000612b68602f836131a6565b9150612b7382613a07565b604082019050919050565b6000612b8b600a836131b7565b9150612b9682613a56565b600a82019050919050565b6000612bae6021836131a6565b9150612bb982613a7f565b604082019050919050565b6000612bd1600a836131b7565b9150612bdc82613ace565b600a82019050919050565b6000612bf4601d836131b7565b9150612bff82613af7565b601d82019050919050565b6000612c176031836131a6565b9150612c2282613b20565b604082019050919050565b612c3681613341565b82525050565b6000612c488284612835565b915081905092915050565b6000612c5f8285612835565b9150612c6b8284612835565b91508190509392505050565b6000612c838286612835565b9150612c8f8285612835565b9150612c9b8284612835565b9150819050949350505050565b6000612cb48287612866565b9150612cc08286612835565b9150612ccc8285612835565b9150612cd88284612835565b9150612ce382612a20565b915081905095945050505050565b6000612cfc8261294e565b9150612d088284612835565b915081905092915050565b6000612d1e826129da565b9150612d2a8284612835565b915081905092915050565b6000612d4082612b7e565b9150612d4c8285612835565b9150612d57826129b7565b9150612d638284612835565b9150612d6e82612acf565b91508190509392505050565b6000612d8582612bc4565b9150612d918284612835565b915081905092915050565b6000612da782612be7565b9150612db38284612835565b915081905092915050565b6000602082019050612dd360008301846127a5565b92915050565b6000608082019050612dee60008301876127a5565b612dfb60208301866127a5565b612e086040830185612c2d565b8181036060830152612e1a81846127c3565b905095945050505050565b6000604082019050612e3a60008301856127a5565b612e476020830184612c2d565b9392505050565b6000602082019050612e6360008301846127b4565b92915050565b60006020820190508181036000830152612e8381846127fc565b905092915050565b60006040820190508181036000830152612ea581856127fc565b9050612eb46020830184612c2d565b9392505050565b60006060820190508181036000830152612ed581866127fc565b9050612ee46020830185612c2d565b612ef160408301846127a5565b949350505050565b60006020820190508181036000830152612f12816128e5565b9050919050565b60006020820190508181036000830152612f3281612908565b9050919050565b60006020820190508181036000830152612f528161292b565b9050919050565b60006020820190508181036000830152612f7281612971565b9050919050565b60006020820190508181036000830152612f9281612994565b9050919050565b60006020820190508181036000830152612fb2816129fd565b9050919050565b60006020820190508181036000830152612fd281612a43565b9050919050565b60006020820190508181036000830152612ff281612a66565b9050919050565b6000602082019050818103600083015261301281612a89565b9050919050565b6000602082019050818103600083015261303281612aac565b9050919050565b6000602082019050818103600083015261305281612af2565b9050919050565b6000602082019050818103600083015261307281612b15565b9050919050565b6000602082019050818103600083015261309281612b38565b9050919050565b600060208201905081810360008301526130b281612b5b565b9050919050565b600060208201905081810360008301526130d281612ba1565b9050919050565b600060208201905081810360008301526130f281612c0a565b9050919050565b600060208201905061310e6000830184612c2d565b92915050565b600061311e61312f565b905061312a82826133bf565b919050565b6000604051905090565b600067ffffffffffffffff821115613154576131536134f7565b5b61315d82613526565b9050602081019050919050565b60008190508160005260206000209050919050565b600081519050919050565b600081519050919050565b600082825260208201905092915050565b600082825260208201905092915050565b600081905092915050565b60006131cd82613341565b91506131d883613341565b9250827fffffffffffffffffffffffffffffffffffffffffffffffffffffffffffffffff0382111561320d5761320c61346a565b5b828201905092915050565b600061322382613341565b915061322e83613341565b92508261323e5761323d613499565b5b828204905092915050565b600061325482613341565b915061325f83613341565b9250817fffffffffffffffffffffffffffffffffffffffffffffffffffffffffffffffff04831182151516156132985761329761346a565b5b828202905092915050565b60006132ae82613341565b91506132b983613341565b9250828210156132cc576132cb61346a565b5b828203905092915050565b60006132e282613321565b9050919050565b60008115159050919050565b60007fffffffff0000000000000000000000000000000000000000000000000000000082169050919050565b600073ffffffffffffffffffffffffffffffffffffffff82169050919050565b6000819050919050565b82818337600083830152505050565b60005b8381101561337857808201518184015260208101905061335d565b83811115613387576000848401525b50505050565b600060028204905060018216806133a557607f821691505b602082108114156133b9576133b86134c8565b5b50919050565b6133c882613526565b810181811067ffffffffffffffff821117156133e7576133e66134f7565b5b80604052505050565b60006133fb82613341565b91507fffffffffffffffffffffffffffffffffffffffffffffffffffffffffffffffff82141561342e5761342d61346a565b5b600182019050919050565b600061344482613341565b915061344f83613341565b92508261345f5761345e613499565b5b828206905092915050565b7f4e487b7100000000000000000000000000000000000000000000000000000000600052601160045260246000fd5b7f4e487b7100000000000000000000000000000000000000000000000000000000600052601260045260246000fd5b7f4e487b7100000000000000000000000000000000000000000000000000000000600052602260045260246000fd5b7f4e487b7100000000000000000000000000000000000000000000000000000000600052604160045260246000fd5b6000601f19601f8301169050919050565b7f4552433732313a207472616e7366657220746f206e6f6e20455243373231526560008201527f63656976657220696d706c656d656e7465720000000000000000000000000000602082015250565b7f4552433732313a207472616e736665722066726f6d20696e636f72726563742060008201527f6f776e6572000000000000000000000000000000000000000000000000000000602082015250565b7f4552433732313a20746f6b656e20616c7265616479206d696e74656400000000600082015250565b7f54484952445f574f524400000000000000000000000000000000000000000000600082015250565b7f4552433732313a207472616e7366657220746f20746865207a65726f2061646460008201527f7265737300000000000000000000000000000000000000000000000000000000602082015250565b7f4552433732313a20617070726f766520746f2063616c6c657200000000000000600082015250565b7f222c20226465736372697074696f6e223a20224120686967686c79206163636c60008201527f61696d656420636f6c6c656374696f6e206f6620737175617265732e222c202260208201527f696d616765223a2022646174613a696d6167652f7376672b786d6c3b6261736560408201527f36342c0000000000000000000000000000000000000000000000000000000000606082015250565b7f5345434f4e445f574f5244000000000000000000000000000000000000000000600082015250565b7f4552433732313a206f70657261746f7220717565727920666f72206e6f6e657860008201527f697374656e7420746f6b656e0000000000000000000000000000000000000000602082015250565b7f3c2f746578743e3c2f7376673e00000000000000000000000000000000000000600082015250565b7f4552433732313a20617070726f76652063616c6c6572206973206e6f74206f7760008201527f6e6572206e6f7220617070726f76656420666f7220616c6c0000000000000000602082015250565b7f4552433732313a2062616c616e636520717565727920666f7220746865207a6560008201527f726f206164647265737300000000000000000000000000000000000000000000602082015250565b7f4552433732313a206f776e657220717565727920666f72206e6f6e657869737460008201527f656e7420746f6b656e0000000000000000000000000000000000000000000000602082015250565b7f45524337323155524953746f726167653a2055524920736574206f66206e6f6e60008201527f6578697374656e7420746f6b656e000000000000000000000000000000000000602082015250565b7f227d000000000000000000000000000000000000000000000000000000000000600082015250565b7f4552433732313a206d696e7420746f20746865207a65726f2061646472657373600082015250565b7f45524337323155524953746f726167653a2055524920717565727920666f722060008201527f6e6f6e6578697374656e7420746f6b656e000000000000000000000000000000602082015250565b7f4552433732313a20617070726f76656420717565727920666f72206e6f6e657860008201527f697374656e7420746f6b656e0000000000000000000000000000000000000000602082015250565b7f4552433732314d657461646174613a2055524920717565727920666f72206e6f60008201527f6e6578697374656e7420746f6b656e0000000000000000000000000000000000602082015250565b7f7b226e616d65223a202200000000000000000000000000000000000000000000600082015250565b7f4552433732313a20617070726f76616c20746f2063757272656e74206f776e6560008201527f7200000000000000000000000000000000000000000000000000000000000000602082015250565b7f46495253545f574f524400000000000000000000000000000000000000000000600082015250565b7f646174613a6170706c69636174696f6e2f6a736f6e3b6261736536342c000000600082015250565b7f4552433732313a207472616e736665722063616c6c6572206973206e6f74206f60008201527f776e6572206e6f7220617070726f766564000000000000000000000000000000602082015250565b613b78816132d7565b8114613b8357600080fd5b50565b613b8f816132e9565b8114613b9a57600080fd5b50565b613ba6816132f5565b8114613bb157600080fd5b50565b613bbd81613341565b8114613bc857600080fd5b5056fe416e204e465420772f20494420257320686173206265656e206d696e74656420746f2025734142434445464748494a4b4c4d4e4f505152535455565758595a6162636465666768696a6b6c6d6e6f707172737475767778797a303132333435363738392b2fa2646970667358221220ba0557b1df8a49a565d3ef6bc4aaca5283ff3a6fbd95895049a101db054dc15264736f6c634300080400333c73766720786d6c6e733d27687474703a2f2f7777772e77332e6f72672f323030302f73766727207072657365727665417370656374526174696f3d27784d696e594d696e206d656574272076696577426f783d273020302033353020333530273e3c7374796c653e2e62617365207b2066696c6c3a2077686974653b20666f6e742d66616d696c793a2073657269663b20666f6e742d73697a653a20323470783b207d3c2f7374796c653e3c726563742077696474683d273130302527206865696768743d2731303025272066696c6c3d27626c61636b27202f3e3c7465787420783d273530252720793d273530252720636c6173733d27626173652720646f6d696e616e742d626173656c696e653d276d6964646c652720746578742d616e63686f723d276d6964646c65273e",
  "linkReferences": {},
  "deployedLinkReferences": {}
}